{
  "_format": "hh-sol-artifact-1",
  "contractName": "AuctionNFT",
  "sourceName": "contracts/auctionNFT.sol",
  "abi": [
    {
      "inputs": [
        {
          "internalType": "address",
          "name": "initialOwner",
          "type": "address"
        }
      ],
      "stateMutability": "nonpayable",
      "type": "constructor"
    },
    {
      "inputs": [
        {
          "internalType": "address",
          "name": "sender",
          "type": "address"
        },
        {
          "internalType": "uint256",
          "name": "tokenId",
          "type": "uint256"
        },
        {
          "internalType": "address",
          "name": "owner",
          "type": "address"
        }
      ],
      "name": "ERC721IncorrectOwner",
      "type": "error"
    },
    {
      "inputs": [
        {
          "internalType": "address",
          "name": "operator",
          "type": "address"
        },
        {
          "internalType": "uint256",
          "name": "tokenId",
          "type": "uint256"
        }
      ],
      "name": "ERC721InsufficientApproval",
      "type": "error"
    },
    {
      "inputs": [
        {
          "internalType": "address",
          "name": "approver",
          "type": "address"
        }
      ],
      "name": "ERC721InvalidApprover",
      "type": "error"
    },
    {
      "inputs": [
        {
          "internalType": "address",
          "name": "operator",
          "type": "address"
        }
      ],
      "name": "ERC721InvalidOperator",
      "type": "error"
    },
    {
      "inputs": [
        {
          "internalType": "address",
          "name": "owner",
          "type": "address"
        }
      ],
      "name": "ERC721InvalidOwner",
      "type": "error"
    },
    {
      "inputs": [
        {
          "internalType": "address",
          "name": "receiver",
          "type": "address"
        }
      ],
      "name": "ERC721InvalidReceiver",
      "type": "error"
    },
    {
      "inputs": [
        {
          "internalType": "address",
          "name": "sender",
          "type": "address"
        }
      ],
      "name": "ERC721InvalidSender",
      "type": "error"
    },
    {
      "inputs": [
        {
          "internalType": "uint256",
          "name": "tokenId",
          "type": "uint256"
        }
      ],
      "name": "ERC721NonexistentToken",
      "type": "error"
    },
    {
      "inputs": [],
      "name": "EnforcedPause",
      "type": "error"
    },
    {
      "inputs": [],
      "name": "ExpectedPause",
      "type": "error"
    },
    {
      "inputs": [
        {
          "internalType": "address",
          "name": "owner",
          "type": "address"
        }
      ],
      "name": "OwnableInvalidOwner",
      "type": "error"
    },
    {
      "inputs": [
        {
          "internalType": "address",
          "name": "account",
          "type": "address"
        }
      ],
      "name": "OwnableUnauthorizedAccount",
      "type": "error"
    },
    {
      "anonymous": false,
      "inputs": [
        {
          "indexed": true,
          "internalType": "address",
          "name": "owner",
          "type": "address"
        },
        {
          "indexed": true,
          "internalType": "address",
          "name": "approved",
          "type": "address"
        },
        {
          "indexed": true,
          "internalType": "uint256",
          "name": "tokenId",
          "type": "uint256"
        }
      ],
      "name": "Approval",
      "type": "event"
    },
    {
      "anonymous": false,
      "inputs": [
        {
          "indexed": true,
          "internalType": "address",
          "name": "owner",
          "type": "address"
        },
        {
          "indexed": true,
          "internalType": "address",
          "name": "operator",
          "type": "address"
        },
        {
          "indexed": false,
          "internalType": "bool",
          "name": "approved",
          "type": "bool"
        }
      ],
      "name": "ApprovalForAll",
      "type": "event"
    },
    {
      "anonymous": false,
      "inputs": [
        {
          "indexed": true,
          "internalType": "address",
          "name": "previousOwner",
          "type": "address"
        },
        {
          "indexed": true,
          "internalType": "address",
          "name": "newOwner",
          "type": "address"
        }
      ],
      "name": "OwnershipTransferred",
      "type": "event"
    },
    {
      "anonymous": false,
      "inputs": [
        {
          "indexed": false,
          "internalType": "address",
          "name": "account",
          "type": "address"
        }
      ],
      "name": "Paused",
      "type": "event"
    },
    {
      "anonymous": false,
      "inputs": [
        {
          "indexed": true,
          "internalType": "address",
          "name": "from",
          "type": "address"
        },
        {
          "indexed": true,
          "internalType": "address",
          "name": "to",
          "type": "address"
        },
        {
          "indexed": true,
          "internalType": "uint256",
          "name": "tokenId",
          "type": "uint256"
        }
      ],
      "name": "Transfer",
      "type": "event"
    },
    {
      "anonymous": false,
      "inputs": [
        {
          "indexed": false,
          "internalType": "address",
          "name": "account",
          "type": "address"
        }
      ],
      "name": "Unpaused",
      "type": "event"
    },
    {
      "inputs": [
        {
          "internalType": "address",
          "name": "to",
          "type": "address"
        },
        {
          "internalType": "uint256",
          "name": "tokenId",
          "type": "uint256"
        }
      ],
      "name": "approve",
      "outputs": [],
      "stateMutability": "nonpayable",
      "type": "function"
    },
    {
      "inputs": [
        {
          "internalType": "address",
          "name": "owner",
          "type": "address"
        }
      ],
      "name": "balanceOf",
      "outputs": [
        {
          "internalType": "uint256",
          "name": "",
          "type": "uint256"
        }
      ],
      "stateMutability": "view",
      "type": "function"
    },
    {
      "inputs": [
        {
          "internalType": "uint256",
          "name": "tokenId",
          "type": "uint256"
        }
      ],
      "name": "getApproved",
      "outputs": [
        {
          "internalType": "address",
          "name": "",
          "type": "address"
        }
      ],
      "stateMutability": "view",
      "type": "function"
    },
    {
      "inputs": [
        {
          "internalType": "address",
          "name": "owner",
          "type": "address"
        },
        {
          "internalType": "address",
          "name": "operator",
          "type": "address"
        }
      ],
      "name": "isApprovedForAll",
      "outputs": [
        {
          "internalType": "bool",
          "name": "",
          "type": "bool"
        }
      ],
      "stateMutability": "view",
      "type": "function"
    },
    {
      "inputs": [],
      "name": "name",
      "outputs": [
        {
          "internalType": "string",
          "name": "",
          "type": "string"
        }
      ],
      "stateMutability": "view",
      "type": "function"
    },
    {
      "inputs": [],
      "name": "owner",
      "outputs": [
        {
          "internalType": "address",
          "name": "",
          "type": "address"
        }
      ],
      "stateMutability": "view",
      "type": "function"
    },
    {
      "inputs": [
        {
          "internalType": "uint256",
          "name": "tokenId",
          "type": "uint256"
        }
      ],
      "name": "ownerOf",
      "outputs": [
        {
          "internalType": "address",
          "name": "",
          "type": "address"
        }
      ],
      "stateMutability": "view",
      "type": "function"
    },
    {
      "inputs": [],
      "name": "pause",
      "outputs": [],
      "stateMutability": "nonpayable",
      "type": "function"
    },
    {
      "inputs": [],
      "name": "paused",
      "outputs": [
        {
          "internalType": "bool",
          "name": "",
          "type": "bool"
        }
      ],
      "stateMutability": "view",
      "type": "function"
    },
    {
      "inputs": [],
      "name": "renounceOwnership",
      "outputs": [],
      "stateMutability": "nonpayable",
      "type": "function"
    },
    {
      "inputs": [
        {
          "internalType": "address",
          "name": "to",
          "type": "address"
        }
      ],
      "name": "safeMint",
      "outputs": [
        {
          "internalType": "uint256",
          "name": "",
          "type": "uint256"
        }
      ],
      "stateMutability": "nonpayable",
      "type": "function"
    },
    {
      "inputs": [
        {
          "internalType": "address",
          "name": "from",
          "type": "address"
        },
        {
          "internalType": "address",
          "name": "to",
          "type": "address"
        },
        {
          "internalType": "uint256",
          "name": "tokenId",
          "type": "uint256"
        }
      ],
      "name": "safeTransferFrom",
      "outputs": [],
      "stateMutability": "nonpayable",
      "type": "function"
    },
    {
      "inputs": [
        {
          "internalType": "address",
          "name": "from",
          "type": "address"
        },
        {
          "internalType": "address",
          "name": "to",
          "type": "address"
        },
        {
          "internalType": "uint256",
          "name": "tokenId",
          "type": "uint256"
        },
        {
          "internalType": "bytes",
          "name": "data",
          "type": "bytes"
        }
      ],
      "name": "safeTransferFrom",
      "outputs": [],
      "stateMutability": "nonpayable",
      "type": "function"
    },
    {
      "inputs": [
        {
          "internalType": "address",
          "name": "operator",
          "type": "address"
        },
        {
          "internalType": "bool",
          "name": "approved",
          "type": "bool"
        }
      ],
      "name": "setApprovalForAll",
      "outputs": [],
      "stateMutability": "nonpayable",
      "type": "function"
    },
    {
      "inputs": [
        {
          "internalType": "bytes4",
          "name": "interfaceId",
          "type": "bytes4"
        }
      ],
      "name": "supportsInterface",
      "outputs": [
        {
          "internalType": "bool",
          "name": "",
          "type": "bool"
        }
      ],
      "stateMutability": "view",
      "type": "function"
    },
    {
      "inputs": [],
      "name": "symbol",
      "outputs": [
        {
          "internalType": "string",
          "name": "",
          "type": "string"
        }
      ],
      "stateMutability": "view",
      "type": "function"
    },
    {
      "inputs": [
        {
          "internalType": "uint256",
          "name": "tokenId",
          "type": "uint256"
        }
      ],
      "name": "tokenURI",
      "outputs": [
        {
          "internalType": "string",
          "name": "",
          "type": "string"
        }
      ],
      "stateMutability": "view",
      "type": "function"
    },
    {
      "inputs": [
        {
          "internalType": "address",
          "name": "from",
          "type": "address"
        },
        {
          "internalType": "address",
          "name": "to",
          "type": "address"
        },
        {
          "internalType": "uint256",
          "name": "tokenId",
          "type": "uint256"
        }
      ],
      "name": "transferFrom",
      "outputs": [],
      "stateMutability": "nonpayable",
      "type": "function"
    },
    {
      "inputs": [
        {
          "internalType": "address",
          "name": "newOwner",
          "type": "address"
        }
      ],
      "name": "transferOwnership",
      "outputs": [],
      "stateMutability": "nonpayable",
      "type": "function"
    },
    {
      "inputs": [],
      "name": "unpause",
      "outputs": [],
      "stateMutability": "nonpayable",
      "type": "function"
    }
  ],
  "bytecode": "0x608060405234801561001057600080fd5b5060405161292c38038061292c83398181016040528101906100329190610272565b806040518060400160405280600a81526020017f41756374696f6e4e4654000000000000000000000000000000000000000000008152506040518060400160405280600481526020017f414e46540000000000000000000000000000000000000000000000000000000081525081600090816100ae91906104ef565b5080600190816100be91906104ef565b505050600073ffffffffffffffffffffffffffffffffffffffff168173ffffffffffffffffffffffffffffffffffffffff16036101335760006040517f1e4fbdf700000000000000000000000000000000000000000000000000000000815260040161012a91906105d0565b60405180910390fd5b6101428161014960201b60201c565b50506105eb565b6000600660019054906101000a900473ffffffffffffffffffffffffffffffffffffffff16905081600660016101000a81548173ffffffffffffffffffffffffffffffffffffffff021916908373ffffffffffffffffffffffffffffffffffffffff1602179055508173ffffffffffffffffffffffffffffffffffffffff168173ffffffffffffffffffffffffffffffffffffffff167f8be0079c531659141344cd1fd0a4f28419497f9722a3daafe3b4186f6b6457e060405160405180910390a35050565b600080fd5b600073ffffffffffffffffffffffffffffffffffffffff82169050919050565b600061023f82610214565b9050919050565b61024f81610234565b811461025a57600080fd5b50565b60008151905061026c81610246565b92915050565b6000602082840312156102885761028761020f565b5b60006102968482850161025d565b91505092915050565b600081519050919050565b7f4e487b7100000000000000000000000000000000000000000000000000000000600052604160045260246000fd5b7f4e487b7100000000000000000000000000000000000000000000000000000000600052602260045260246000fd5b6000600282049050600182168061032057607f821691505b602082108103610333576103326102d9565b5b50919050565b60008190508160005260206000209050919050565b60006020601f8301049050919050565b600082821b905092915050565b60006008830261039b7fffffffffffffffffffffffffffffffffffffffffffffffffffffffffffffffff8261035e565b6103a5868361035e565b95508019841693508086168417925050509392505050565b6000819050919050565b6000819050919050565b60006103ec6103e76103e2846103bd565b6103c7565b6103bd565b9050919050565b6000819050919050565b610406836103d1565b61041a610412826103f3565b84845461036b565b825550505050565b600090565b61042f610422565b61043a8184846103fd565b505050565b5b8181101561045e57610453600082610427565b600181019050610440565b5050565b601f8211156104a35761047481610339565b61047d8461034e565b8101602085101561048c578190505b6104a06104988561034e565b83018261043f565b50505b505050565b600082821c905092915050565b60006104c6600019846008026104a8565b1980831691505092915050565b60006104df83836104b5565b9150826002028217905092915050565b6104f88261029f565b67ffffffffffffffff811115610511576105106102aa565b5b61051b8254610308565b610526828285610462565b600060209050601f8311600181146105595760008415610547578287015190505b61055185826104d3565b8655506105b9565b601f19841661056786610339565b60005b8281101561058f5784890151825560018201915060208501945060208101905061056a565b868310156105ac57848901516105a8601f8916826104b5565b8355505b6001600288020188555050505b505050505050565b6105ca81610234565b82525050565b60006020820190506105e560008301846105c1565b92915050565b612332806105fa6000396000f3fe608060405234801561001057600080fd5b506004361061012c5760003560e01c806370a08231116100ad578063a22cb46511610071578063a22cb4651461030b578063b88d4fde14610327578063c87b56dd14610343578063e985e9c514610373578063f2fde38b146103a35761012c565b806370a082311461028b578063715018a6146102bb5780638456cb59146102c55780638da5cb5b146102cf57806395d89b41146102ed5761012c565b80633f4ba83a116100f45780633f4ba83a146101e757806340d097c3146101f157806342842e0e146102215780635c975abb1461023d5780636352211e1461025b5761012c565b806301ffc9a71461013157806306fdde0314610161578063081812fc1461017f578063095ea7b3146101af57806323b872dd146101cb575b600080fd5b61014b60048036038101906101469190611b05565b6103bf565b6040516101589190611b4d565b60405180910390f35b6101696104a1565b6040516101769190611bf8565b60405180910390f35b61019960048036038101906101949190611c50565b610533565b6040516101a69190611cbe565b60405180910390f35b6101c960048036038101906101c49190611d05565b61054f565b005b6101e560048036038101906101e09190611d45565b610565565b005b6101ef610667565b005b61020b60048036038101906102069190611d98565b610679565b6040516102189190611dd4565b60405180910390f35b61023b60048036038101906102369190611d45565b6106b1565b005b6102456106d1565b6040516102529190611b4d565b60405180910390f35b61027560048036038101906102709190611c50565b6106e8565b6040516102829190611cbe565b60405180910390f35b6102a560048036038101906102a09190611d98565b6106fa565b6040516102b29190611dd4565b60405180910390f35b6102c36107b4565b005b6102cd6107c8565b005b6102d76107da565b6040516102e49190611cbe565b60405180910390f35b6102f5610804565b6040516103029190611bf8565b60405180910390f35b61032560048036038101906103209190611e1b565b610896565b005b610341600480360381019061033c9190611f90565b6108ac565b005b61035d60048036038101906103589190611c50565b6108d1565b60405161036a9190611bf8565b60405180910390f35b61038d60048036038101906103889190612013565b61093a565b60405161039a9190611b4d565b60405180910390f35b6103bd60048036038101906103b89190611d98565b6109ce565b005b60007f80ac58cd000000000000000000000000000000000000000000000000000000007bffffffffffffffffffffffffffffffffffffffffffffffffffffffff1916827bffffffffffffffffffffffffffffffffffffffffffffffffffffffff1916148061048a57507f5b5e139f000000000000000000000000000000000000000000000000000000007bffffffffffffffffffffffffffffffffffffffffffffffffffffffff1916827bffffffffffffffffffffffffffffffffffffffffffffffffffffffff1916145b8061049a575061049982610a54565b5b9050919050565b6060600080546104b090612082565b80601f01602080910402602001604051908101604052809291908181526020018280546104dc90612082565b80156105295780601f106104fe57610100808354040283529160200191610529565b820191906000526020600020905b81548152906001019060200180831161050c57829003601f168201915b5050505050905090565b600061053e82610abe565b5061054882610b46565b9050919050565b610561828261055c610b83565b610b8b565b5050565b600073ffffffffffffffffffffffffffffffffffffffff168273ffffffffffffffffffffffffffffffffffffffff16036105d75760006040517f64a0ae920000000000000000000000000000000000000000000000000000000081526004016105ce9190611cbe565b60405180910390fd5b60006105eb83836105e6610b83565b610b9d565b90508373ffffffffffffffffffffffffffffffffffffffff168173ffffffffffffffffffffffffffffffffffffffff1614610661578382826040517f64283d7b000000000000000000000000000000000000000000000000000000008152600401610658939291906120b3565b60405180910390fd5b50505050565b61066f610bb3565b610677610c3a565b565b6000610683610bb3565b60006007600081548092919061069890612119565b9190505590506106a88382610c9d565b80915050919050565b6106cc838383604051806020016040528060008152506108ac565b505050565b6000600660009054906101000a900460ff16905090565b60006106f382610abe565b9050919050565b60008073ffffffffffffffffffffffffffffffffffffffff168273ffffffffffffffffffffffffffffffffffffffff160361076d5760006040517f89c62b640000000000000000000000000000000000000000000000000000000081526004016107649190611cbe565b60405180910390fd5b600360008373ffffffffffffffffffffffffffffffffffffffff1673ffffffffffffffffffffffffffffffffffffffff168152602001908152602001600020549050919050565b6107bc610bb3565b6107c66000610cbb565b565b6107d0610bb3565b6107d8610d81565b565b6000600660019054906101000a900473ffffffffffffffffffffffffffffffffffffffff16905090565b60606001805461081390612082565b80601f016020809104026020016040519081016040528092919081815260200182805461083f90612082565b801561088c5780601f106108615761010080835404028352916020019161088c565b820191906000526020600020905b81548152906001019060200180831161086f57829003601f168201915b5050505050905090565b6108a86108a1610b83565b8383610de4565b5050565b6108b7848484610565565b6108cb6108c2610b83565b85858585610f53565b50505050565b60606108dc82610abe565b5060006108e7611104565b905060008151116109075760405180602001604052806000815250610932565b806109118461111b565b60405160200161092292919061219d565b6040516020818303038152906040525b915050919050565b6000600560008473ffffffffffffffffffffffffffffffffffffffff1673ffffffffffffffffffffffffffffffffffffffff16815260200190815260200160002060008373ffffffffffffffffffffffffffffffffffffffff1673ffffffffffffffffffffffffffffffffffffffff16815260200190815260200160002060009054906101000a900460ff16905092915050565b6109d6610bb3565b600073ffffffffffffffffffffffffffffffffffffffff168173ffffffffffffffffffffffffffffffffffffffff1603610a485760006040517f1e4fbdf7000000000000000000000000000000000000000000000000000000008152600401610a3f9190611cbe565b60405180910390fd5b610a5181610cbb565b50565b60007f01ffc9a7000000000000000000000000000000000000000000000000000000007bffffffffffffffffffffffffffffffffffffffffffffffffffffffff1916827bffffffffffffffffffffffffffffffffffffffffffffffffffffffff1916149050919050565b600080610aca836111e9565b9050600073ffffffffffffffffffffffffffffffffffffffff168173ffffffffffffffffffffffffffffffffffffffff1603610b3d57826040517f7e273289000000000000000000000000000000000000000000000000000000008152600401610b349190611dd4565b60405180910390fd5b80915050919050565b60006004600083815260200190815260200160002060009054906101000a900473ffffffffffffffffffffffffffffffffffffffff169050919050565b600033905090565b610b988383836001611226565b505050565b6000610baa8484846113eb565b90509392505050565b610bbb610b83565b73ffffffffffffffffffffffffffffffffffffffff16610bd96107da565b73ffffffffffffffffffffffffffffffffffffffff1614610c3857610bfc610b83565b6040517f118cdaa7000000000000000000000000000000000000000000000000000000008152600401610c2f9190611cbe565b60405180910390fd5b565b610c42611409565b6000600660006101000a81548160ff0219169083151502179055507f5db9ee0a495bf2e6ff9c91a7834c1ba4fdd244a5e8aa4e537bd38aeae4b073aa610c86610b83565b604051610c939190611cbe565b60405180910390a1565b610cb7828260405180602001604052806000815250611449565b5050565b6000600660019054906101000a900473ffffffffffffffffffffffffffffffffffffffff16905081600660016101000a81548173ffffffffffffffffffffffffffffffffffffffff021916908373ffffffffffffffffffffffffffffffffffffffff1602179055508173ffffffffffffffffffffffffffffffffffffffff168173ffffffffffffffffffffffffffffffffffffffff167f8be0079c531659141344cd1fd0a4f28419497f9722a3daafe3b4186f6b6457e060405160405180910390a35050565b610d8961146d565b6001600660006101000a81548160ff0219169083151502179055507f62e78cea01bee320cd4e420270b5ea74000d11b0c9f74754ebdbfc544b05a258610dcd610b83565b604051610dda9190611cbe565b60405180910390a1565b600073ffffffffffffffffffffffffffffffffffffffff168273ffffffffffffffffffffffffffffffffffffffff1603610e5557816040517f5b08ba18000000000000000000000000000000000000000000000000000000008152600401610e4c9190611cbe565b60405180910390fd5b80600560008573ffffffffffffffffffffffffffffffffffffffff1673ffffffffffffffffffffffffffffffffffffffff16815260200190815260200160002060008473ffffffffffffffffffffffffffffffffffffffff1673ffffffffffffffffffffffffffffffffffffffff16815260200190815260200160002060006101000a81548160ff0219169083151502179055508173ffffffffffffffffffffffffffffffffffffffff168373ffffffffffffffffffffffffffffffffffffffff167f17307eab39ab6107e8899845ad3d59bd9653f200f220920489ca2b5937696c3183604051610f469190611b4d565b60405180910390a3505050565b60008373ffffffffffffffffffffffffffffffffffffffff163b11156110fd578273ffffffffffffffffffffffffffffffffffffffff1663150b7a02868685856040518563ffffffff1660e01b8152600401610fb29493929190612216565b6020604051808303816000875af1925050508015610fee57506040513d601f19601f82011682018060405250810190610feb9190612277565b60015b611072573d806000811461101e576040519150601f19603f3d011682016040523d82523d6000602084013e611023565b606091505b50600081510361106a57836040517f64a0ae920000000000000000000000000000000000000000000000000000000081526004016110619190611cbe565b60405180910390fd5b805181602001fd5b63150b7a0260e01b7bffffffffffffffffffffffffffffffffffffffffffffffffffffffff1916817bffffffffffffffffffffffffffffffffffffffffffffffffffffffff1916146110fb57836040517f64a0ae920000000000000000000000000000000000000000000000000000000081526004016110f29190611cbe565b60405180910390fd5b505b5050505050565b606060405180602001604052806000815250905090565b60606000600161112a846114ae565b01905060008167ffffffffffffffff81111561114957611148611e65565b5b6040519080825280601f01601f19166020018201604052801561117b5781602001600182028036833780820191505090505b509050600082602001820190505b6001156111de578080600190039150507f3031323334353637383961626364656600000000000000000000000000000000600a86061a8153600a85816111d2576111d16122a4565b5b04945060008503611189575b819350505050919050565b60006002600083815260200190815260200160002060009054906101000a900473ffffffffffffffffffffffffffffffffffffffff169050919050565b808061125f5750600073ffffffffffffffffffffffffffffffffffffffff168273ffffffffffffffffffffffffffffffffffffffff1614155b1561139357600061126f84610abe565b9050600073ffffffffffffffffffffffffffffffffffffffff168373ffffffffffffffffffffffffffffffffffffffff16141580156112da57508273ffffffffffffffffffffffffffffffffffffffff168173ffffffffffffffffffffffffffffffffffffffff1614155b80156112ed57506112eb818461093a565b155b1561132f57826040517fa9fbf51f0000000000000000000000000000000000000000000000000000000081526004016113269190611cbe565b60405180910390fd5b811561139157838573ffffffffffffffffffffffffffffffffffffffff168273ffffffffffffffffffffffffffffffffffffffff167f8c5be1e5ebec7d5bd14f71427d1e84f3dd0314c0f7b2291e5b200ac8c7c3b92560405160405180910390a45b505b836004600085815260200190815260200160002060006101000a81548173ffffffffffffffffffffffffffffffffffffffff021916908373ffffffffffffffffffffffffffffffffffffffff16021790555050505050565b60006113f561146d565b611400848484611601565b90509392505050565b6114116106d1565b611447576040517f8dfc202b00000000000000000000000000000000000000000000000000000000815260040160405180910390fd5b565b611453838361181b565b61146861145e610b83565b6000858585610f53565b505050565b6114756106d1565b156114ac576040517fd93c066500000000000000000000000000000000000000000000000000000000815260040160405180910390fd5b565b600080600090507a184f03e93ff9f4daa797ed6e38ed64bf6a1f010000000000000000831061150c577a184f03e93ff9f4daa797ed6e38ed64bf6a1f0100000000000000008381611502576115016122a4565b5b0492506040810190505b6d04ee2d6d415b85acef81000000008310611549576d04ee2d6d415b85acef8100000000838161153f5761153e6122a4565b5b0492506020810190505b662386f26fc10000831061157857662386f26fc10000838161156e5761156d6122a4565b5b0492506010810190505b6305f5e10083106115a1576305f5e1008381611597576115966122a4565b5b0492506008810190505b61271083106115c65761271083816115bc576115bb6122a4565b5b0492506004810190505b606483106115e957606483816115df576115de6122a4565b5b0492506002810190505b600a83106115f8576001810190505b80915050919050565b60008061160d846111e9565b9050600073ffffffffffffffffffffffffffffffffffffffff168373ffffffffffffffffffffffffffffffffffffffff161461164f5761164e818486611914565b5b600073ffffffffffffffffffffffffffffffffffffffff168173ffffffffffffffffffffffffffffffffffffffff16146116e057611691600085600080611226565b6001600360008373ffffffffffffffffffffffffffffffffffffffff1673ffffffffffffffffffffffffffffffffffffffff168152602001908152602001600020600082825403925050819055505b600073ffffffffffffffffffffffffffffffffffffffff168573ffffffffffffffffffffffffffffffffffffffff1614611763576001600360008773ffffffffffffffffffffffffffffffffffffffff1673ffffffffffffffffffffffffffffffffffffffff168152602001908152602001600020600082825401925050819055505b846002600086815260200190815260200160002060006101000a81548173ffffffffffffffffffffffffffffffffffffffff021916908373ffffffffffffffffffffffffffffffffffffffff160217905550838573ffffffffffffffffffffffffffffffffffffffff168273ffffffffffffffffffffffffffffffffffffffff167fddf252ad1be2c89b69c2b068fc378daa952ba7f163c4a11628f55a4df523b3ef60405160405180910390a4809150509392505050565b600073ffffffffffffffffffffffffffffffffffffffff168273ffffffffffffffffffffffffffffffffffffffff160361188d5760006040517f64a0ae920000000000000000000000000000000000000000000000000000000081526004016118849190611cbe565b60405180910390fd5b600061189b83836000610b9d565b9050600073ffffffffffffffffffffffffffffffffffffffff168173ffffffffffffffffffffffffffffffffffffffff161461190f5760006040517f73c6ac6e0000000000000000000000000000000000000000000000000000000081526004016119069190611cbe565b60405180910390fd5b505050565b61191f8383836119d8565b6119d357600073ffffffffffffffffffffffffffffffffffffffff168373ffffffffffffffffffffffffffffffffffffffff160361199457806040517f7e27328900000000000000000000000000000000000000000000000000000000815260040161198b9190611dd4565b60405180910390fd5b81816040517f177e802f0000000000000000000000000000000000000000000000000000000081526004016119ca9291906122d3565b60405180910390fd5b505050565b60008073ffffffffffffffffffffffffffffffffffffffff168373ffffffffffffffffffffffffffffffffffffffff1614158015611a9057508273ffffffffffffffffffffffffffffffffffffffff168473ffffffffffffffffffffffffffffffffffffffff161480611a515750611a50848461093a565b5b80611a8f57508273ffffffffffffffffffffffffffffffffffffffff16611a7783610b46565b73ffffffffffffffffffffffffffffffffffffffff16145b5b90509392505050565b6000604051905090565b600080fd5b600080fd5b60007fffffffff0000000000000000000000000000000000000000000000000000000082169050919050565b611ae281611aad565b8114611aed57600080fd5b50565b600081359050611aff81611ad9565b92915050565b600060208284031215611b1b57611b1a611aa3565b5b6000611b2984828501611af0565b91505092915050565b60008115159050919050565b611b4781611b32565b82525050565b6000602082019050611b626000830184611b3e565b92915050565b600081519050919050565b600082825260208201905092915050565b60005b83811015611ba2578082015181840152602081019050611b87565b60008484015250505050565b6000601f19601f8301169050919050565b6000611bca82611b68565b611bd48185611b73565b9350611be4818560208601611b84565b611bed81611bae565b840191505092915050565b60006020820190508181036000830152611c128184611bbf565b905092915050565b6000819050919050565b611c2d81611c1a565b8114611c3857600080fd5b50565b600081359050611c4a81611c24565b92915050565b600060208284031215611c6657611c65611aa3565b5b6000611c7484828501611c3b565b91505092915050565b600073ffffffffffffffffffffffffffffffffffffffff82169050919050565b6000611ca882611c7d565b9050919050565b611cb881611c9d565b82525050565b6000602082019050611cd36000830184611caf565b92915050565b611ce281611c9d565b8114611ced57600080fd5b50565b600081359050611cff81611cd9565b92915050565b60008060408385031215611d1c57611d1b611aa3565b5b6000611d2a85828601611cf0565b9250506020611d3b85828601611c3b565b9150509250929050565b600080600060608486031215611d5e57611d5d611aa3565b5b6000611d6c86828701611cf0565b9350506020611d7d86828701611cf0565b9250506040611d8e86828701611c3b565b9150509250925092565b600060208284031215611dae57611dad611aa3565b5b6000611dbc84828501611cf0565b91505092915050565b611dce81611c1a565b82525050565b6000602082019050611de96000830184611dc5565b92915050565b611df881611b32565b8114611e0357600080fd5b50565b600081359050611e1581611def565b92915050565b60008060408385031215611e3257611e31611aa3565b5b6000611e4085828601611cf0565b9250506020611e5185828601611e06565b9150509250929050565b600080fd5b600080fd5b7f4e487b7100000000000000000000000000000000000000000000000000000000600052604160045260246000fd5b611e9d82611bae565b810181811067ffffffffffffffff82111715611ebc57611ebb611e65565b5b80604052505050565b6000611ecf611a99565b9050611edb8282611e94565b919050565b600067ffffffffffffffff821115611efb57611efa611e65565b5b611f0482611bae565b9050602081019050919050565b82818337600083830152505050565b6000611f33611f2e84611ee0565b611ec5565b905082815260208101848484011115611f4f57611f4e611e60565b5b611f5a848285611f11565b509392505050565b600082601f830112611f7757611f76611e5b565b5b8135611f87848260208601611f20565b91505092915050565b60008060008060808587031215611faa57611fa9611aa3565b5b6000611fb887828801611cf0565b9450506020611fc987828801611cf0565b9350506040611fda87828801611c3b565b925050606085013567ffffffffffffffff811115611ffb57611ffa611aa8565b5b61200787828801611f62565b91505092959194509250565b6000806040838503121561202a57612029611aa3565b5b600061203885828601611cf0565b925050602061204985828601611cf0565b9150509250929050565b7f4e487b7100000000000000000000000000000000000000000000000000000000600052602260045260246000fd5b6000600282049050600182168061209a57607f821691505b6020821081036120ad576120ac612053565b5b50919050565b60006060820190506120c86000830186611caf565b6120d56020830185611dc5565b6120e26040830184611caf565b949350505050565b7f4e487b7100000000000000000000000000000000000000000000000000000000600052601160045260246000fd5b600061212482611c1a565b91507fffffffffffffffffffffffffffffffffffffffffffffffffffffffffffffffff8203612156576121556120ea565b5b600182019050919050565b600081905092915050565b600061217782611b68565b6121818185612161565b9350612191818560208601611b84565b80840191505092915050565b60006121a9828561216c565b91506121b5828461216c565b91508190509392505050565b600081519050919050565b600082825260208201905092915050565b60006121e8826121c1565b6121f281856121cc565b9350612202818560208601611b84565b61220b81611bae565b840191505092915050565b600060808201905061222b6000830187611caf565b6122386020830186611caf565b6122456040830185611dc5565b818103606083015261225781846121dd565b905095945050505050565b60008151905061227181611ad9565b92915050565b60006020828403121561228d5761228c611aa3565b5b600061229b84828501612262565b91505092915050565b7f4e487b7100000000000000000000000000000000000000000000000000000000600052601260045260246000fd5b60006040820190506122e86000830185611caf565b6122f56020830184611dc5565b939250505056fea264697066735822122091d4c2f12f4000b5549a8cc075f4c5916a2b53a784724aca47bae9f3d725d74364736f6c634300081c0033",
  "linkReferences": {},
  "deployedLinkReferences": {}
}