{
  "_format": "hh-sol-artifact-1",
  "contractName": "AuctionPlatform",
  "sourceName": "contracts/auctionPlataform.sol",
  "abi": [
    {
      "inputs": [
        {
          "internalType": "address",
          "name": "_auctionToken",
          "type": "address"
        },
        {
          "internalType": "address",
          "name": "_auctionNFT",
          "type": "address"
        }
      ],
      "stateMutability": "nonpayable",
      "type": "constructor"
    },
    {
      "anonymous": false,
      "inputs": [
        {
          "indexed": true,
          "internalType": "uint256",
          "name": "auctionId",
          "type": "uint256"
        },
        {
          "indexed": false,
          "internalType": "uint256",
          "name": "tokenId",
          "type": "uint256"
        },
        {
          "indexed": false,
          "internalType": "uint256",
          "name": "endTime",
          "type": "uint256"
        }
      ],
      "name": "AuctionCreated",
      "type": "event"
    },
    {
      "anonymous": false,
      "inputs": [
        {
          "indexed": true,
          "internalType": "uint256",
          "name": "auctionId",
          "type": "uint256"
        },
        {
          "indexed": false,
          "internalType": "address",
          "name": "winner",
          "type": "address"
        },
        {
          "indexed": false,
          "internalType": "uint256",
          "name": "bidAmount",
          "type": "uint256"
        }
      ],
      "name": "AuctionEnded",
      "type": "event"
    },
    {
      "anonymous": false,
      "inputs": [
        {
          "indexed": true,
          "internalType": "uint256",
          "name": "auctionId",
          "type": "uint256"
        },
        {
          "indexed": false,
          "internalType": "address",
          "name": "bidder",
          "type": "address"
        },
        {
          "indexed": false,
          "internalType": "uint256",
          "name": "bidAmount",
          "type": "uint256"
        }
      ],
      "name": "NewBid",
      "type": "event"
    },
    {
      "inputs": [],
      "name": "auctionIdCounter",
      "outputs": [
        {
          "internalType": "uint256",
          "name": "",
          "type": "uint256"
        }
      ],
      "stateMutability": "view",
      "type": "function"
    },
    {
      "inputs": [],
      "name": "auctionNFT",
      "outputs": [
        {
          "internalType": "contract IERC721",
          "name": "",
          "type": "address"
        }
      ],
      "stateMutability": "view",
      "type": "function"
    },
    {
      "inputs": [],
      "name": "auctionToken",
      "outputs": [
        {
          "internalType": "contract IERC20",
          "name": "",
          "type": "address"
        }
      ],
      "stateMutability": "view",
      "type": "function"
    },
    {
      "inputs": [
        {
          "internalType": "uint256",
          "name": "",
          "type": "uint256"
        }
      ],
      "name": "auctions",
      "outputs": [
        {
          "internalType": "address",
          "name": "seller",
          "type": "address"
        },
        {
          "internalType": "address",
          "name": "highestBidder",
          "type": "address"
        },
        {
          "internalType": "uint256",
          "name": "highestBid",
          "type": "uint256"
        },
        {
          "internalType": "uint256",
          "name": "tokenId",
          "type": "uint256"
        },
        {
          "internalType": "uint256",
          "name": "endTime",
          "type": "uint256"
        },
        {
          "internalType": "bool",
          "name": "active",
          "type": "bool"
        }
      ],
      "stateMutability": "view",
      "type": "function"
    },
    {
      "inputs": [
        {
          "internalType": "uint256",
          "name": "_tokenId",
          "type": "uint256"
        },
        {
          "internalType": "uint256",
          "name": "duration",
          "type": "uint256"
        }
      ],
      "name": "createAuction",
      "outputs": [],
      "stateMutability": "nonpayable",
      "type": "function"
    },
    {
      "inputs": [
        {
          "internalType": "uint256",
          "name": "auctionId",
          "type": "uint256"
        }
      ],
      "name": "endAuction",
      "outputs": [],
      "stateMutability": "nonpayable",
      "type": "function"
    },
    {
      "inputs": [
        {
          "internalType": "uint256",
          "name": "_auctionId",
          "type": "uint256"
        },
        {
          "internalType": "uint256",
          "name": "_bidAmount",
          "type": "uint256"
        }
      ],
      "name": "placeBid",
      "outputs": [],
      "stateMutability": "nonpayable",
      "type": "function"
    }
  ],
  "bytecode": "0x608060405234801561001057600080fd5b506040516112ee3803806112ee8339818101604052810190610032919061011d565b816000806101000a81548173ffffffffffffffffffffffffffffffffffffffff021916908373ffffffffffffffffffffffffffffffffffffffff16021790555080600160006101000a81548173ffffffffffffffffffffffffffffffffffffffff021916908373ffffffffffffffffffffffffffffffffffffffff160217905550505061015d565b600080fd5b600073ffffffffffffffffffffffffffffffffffffffff82169050919050565b60006100ea826100bf565b9050919050565b6100fa816100df565b811461010557600080fd5b50565b600081519050610117816100f1565b92915050565b60008060408385031215610134576101336100ba565b5b600061014285828601610108565b925050602061015385828601610108565b9150509250929050565b6111828061016c6000396000f3fe608060405234801561001057600080fd5b506004361061007d5760003560e01c806357c90de51161005b57806357c90de5146100f157806399fdb3201461010d578063b9a2de3a1461012b578063de0794ef146101475761007d565b80630121683f1461008257806335af939b1461009e578063571a26a0146100bc575b600080fd5b61009c60048036038101906100979190610bce565b610165565b005b6100a66103b1565b6040516100b39190610c8d565b60405180910390f35b6100d660048036038101906100d19190610ca8565b6103d7565b6040516100e896959493929190610d20565b60405180910390f35b61010b60048036038101906101069190610bce565b610460565b005b6101156107a0565b6040516101229190610da2565b60405180910390f35b61014560048036038101906101409190610ca8565b6107c4565b005b61014f610b8d565b60405161015c9190610dbd565b60405180910390f35b600160009054906101000a900473ffffffffffffffffffffffffffffffffffffffff1673ffffffffffffffffffffffffffffffffffffffff166323b872dd3330856040518463ffffffff1660e01b81526004016101c493929190610dd8565b600060405180830381600087803b1580156101de57600080fd5b505af11580156101f2573d6000803e3d6000fd5b5050505060006002600081548092919061020b90610e3e565b9190505590506040518060c001604052803373ffffffffffffffffffffffffffffffffffffffff168152602001600073ffffffffffffffffffffffffffffffffffffffff16815260200160008152602001848152602001834261026e9190610e86565b8152602001600115158152506003600083815260200190815260200160002060008201518160000160006101000a81548173ffffffffffffffffffffffffffffffffffffffff021916908373ffffffffffffffffffffffffffffffffffffffff16021790555060208201518160010160006101000a81548173ffffffffffffffffffffffffffffffffffffffff021916908373ffffffffffffffffffffffffffffffffffffffff16021790555060408201518160020155606082015181600301556080820151816004015560a08201518160050160006101000a81548160ff021916908315150217905550905050807fd6eddd1118d71820909c1197aa966dbc15ed6f508554252169cc3d5ccac756ca8460036000858152602001908152602001600020600401546040516103a4929190610eba565b60405180910390a2505050565b600160009054906101000a900473ffffffffffffffffffffffffffffffffffffffff1681565b60036020528060005260406000206000915090508060000160009054906101000a900473ffffffffffffffffffffffffffffffffffffffff16908060010160009054906101000a900473ffffffffffffffffffffffffffffffffffffffff16908060020154908060030154908060040154908060050160009054906101000a900460ff16905086565b6000600360008481526020019081526020016000209050806004015442106104bd576040517f08c379a00000000000000000000000000000000000000000000000000000000081526004016104b490610f40565b60405180910390fd5b8060050160009054906101000a900460ff1661050e576040517f08c379a000000000000000000000000000000000000000000000000000000000815260040161050590610fac565b60405180910390fd5b80600201548211610554576040517f08c379a000000000000000000000000000000000000000000000000000000000815260040161054b9061103e565b60405180910390fd5b60008054906101000a900473ffffffffffffffffffffffffffffffffffffffff1673ffffffffffffffffffffffffffffffffffffffff166323b872dd3330856040518463ffffffff1660e01b81526004016105b193929190610dd8565b6020604051808303816000875af11580156105d0573d6000803e3d6000fd5b505050506040513d601f19601f820116820180604052508101906105f4919061108a565b50600073ffffffffffffffffffffffffffffffffffffffff168160010160009054906101000a900473ffffffffffffffffffffffffffffffffffffffff1673ffffffffffffffffffffffffffffffffffffffff16146107155760008054906101000a900473ffffffffffffffffffffffffffffffffffffffff1673ffffffffffffffffffffffffffffffffffffffff1663a9059cbb8260010160009054906101000a900473ffffffffffffffffffffffffffffffffffffffff1683600201546040518363ffffffff1660e01b81526004016106d09291906110b7565b6020604051808303816000875af11580156106ef573d6000803e3d6000fd5b505050506040513d601f19601f82011682018060405250810190610713919061108a565b505b818160020181905550338160010160006101000a81548173ffffffffffffffffffffffffffffffffffffffff021916908373ffffffffffffffffffffffffffffffffffffffff160217905550827f558a0d5d5468d74b0db24c74eb348b42271c2ebb4c9e953ced38aaed95fa436133846040516107939291906110b7565b60405180910390a2505050565b60008054906101000a900473ffffffffffffffffffffffffffffffffffffffff1681565b60006003600083815260200190815260200160002090508060040154421015610822576040517f08c379a00000000000000000000000000000000000000000000000000000000081526004016108199061112c565b60405180910390fd5b8060050160009054906101000a900460ff16610873576040517f08c379a000000000000000000000000000000000000000000000000000000000815260040161086a90610fac565b60405180910390fd5b60008160050160006101000a81548160ff021916908315150217905550600073ffffffffffffffffffffffffffffffffffffffff168160010160009054906101000a900473ffffffffffffffffffffffffffffffffffffffff1673ffffffffffffffffffffffffffffffffffffffff1614610a6d57600160009054906101000a900473ffffffffffffffffffffffffffffffffffffffff1673ffffffffffffffffffffffffffffffffffffffff166323b872dd308360010160009054906101000a900473ffffffffffffffffffffffffffffffffffffffff1684600301546040518463ffffffff1660e01b815260040161096f93929190610dd8565b600060405180830381600087803b15801561098957600080fd5b505af115801561099d573d6000803e3d6000fd5b5050505060008054906101000a900473ffffffffffffffffffffffffffffffffffffffff1673ffffffffffffffffffffffffffffffffffffffff1663a9059cbb8260000160009054906101000a900473ffffffffffffffffffffffffffffffffffffffff1683600201546040518363ffffffff1660e01b8152600401610a249291906110b7565b6020604051808303816000875af1158015610a43573d6000803e3d6000fd5b505050506040513d601f19601f82011682018060405250810190610a67919061108a565b50610b27565b600160009054906101000a900473ffffffffffffffffffffffffffffffffffffffff1673ffffffffffffffffffffffffffffffffffffffff166323b872dd308360000160009054906101000a900473ffffffffffffffffffffffffffffffffffffffff1684600301546040518463ffffffff1660e01b8152600401610af493929190610dd8565b600060405180830381600087803b158015610b0e57600080fd5b505af1158015610b22573d6000803e3d6000fd5b505050505b817fd2aa34a4fdbbc6dff6a3e56f46e0f3ae2a31d7785ff3487aa5c95c642acea5018260010160009054906101000a900473ffffffffffffffffffffffffffffffffffffffff168360020154604051610b819291906110b7565b60405180910390a25050565b60025481565b600080fd5b6000819050919050565b610bab81610b98565b8114610bb657600080fd5b50565b600081359050610bc881610ba2565b92915050565b60008060408385031215610be557610be4610b93565b5b6000610bf385828601610bb9565b9250506020610c0485828601610bb9565b9150509250929050565b600073ffffffffffffffffffffffffffffffffffffffff82169050919050565b6000819050919050565b6000610c53610c4e610c4984610c0e565b610c2e565b610c0e565b9050919050565b6000610c6582610c38565b9050919050565b6000610c7782610c5a565b9050919050565b610c8781610c6c565b82525050565b6000602082019050610ca26000830184610c7e565b92915050565b600060208284031215610cbe57610cbd610b93565b5b6000610ccc84828501610bb9565b91505092915050565b6000610ce082610c0e565b9050919050565b610cf081610cd5565b82525050565b610cff81610b98565b82525050565b60008115159050919050565b610d1a81610d05565b82525050565b600060c082019050610d356000830189610ce7565b610d426020830188610ce7565b610d4f6040830187610cf6565b610d5c6060830186610cf6565b610d696080830185610cf6565b610d7660a0830184610d11565b979650505050505050565b6000610d8c82610c5a565b9050919050565b610d9c81610d81565b82525050565b6000602082019050610db76000830184610d93565b92915050565b6000602082019050610dd26000830184610cf6565b92915050565b6000606082019050610ded6000830186610ce7565b610dfa6020830185610ce7565b610e076040830184610cf6565b949350505050565b7f4e487b7100000000000000000000000000000000000000000000000000000000600052601160045260246000fd5b6000610e4982610b98565b91507fffffffffffffffffffffffffffffffffffffffffffffffffffffffffffffffff8203610e7b57610e7a610e0f565b5b600182019050919050565b6000610e9182610b98565b9150610e9c83610b98565b9250828201905080821115610eb457610eb3610e0f565b5b92915050565b6000604082019050610ecf6000830185610cf6565b610edc6020830184610cf6565b9392505050565b600082825260208201905092915050565b7f41756374696f6e2068617320656e646564000000000000000000000000000000600082015250565b6000610f2a601183610ee3565b9150610f3582610ef4565b602082019050919050565b60006020820190508181036000830152610f5981610f1d565b9050919050565b7f41756374696f6e206973206e6f74206163746976650000000000000000000000600082015250565b6000610f96601583610ee3565b9150610fa182610f60565b602082019050919050565b60006020820190508181036000830152610fc581610f89565b9050919050565b7f426964206d75737420626520686967686572207468616e2063757272656e742060008201527f6869676865737420626964000000000000000000000000000000000000000000602082015250565b6000611028602b83610ee3565b915061103382610fcc565b604082019050919050565b600060208201905081810360008301526110578161101b565b9050919050565b61106781610d05565b811461107257600080fd5b50565b6000815190506110848161105e565b92915050565b6000602082840312156110a05761109f610b93565b5b60006110ae84828501611075565b91505092915050565b60006040820190506110cc6000830185610ce7565b6110d96020830184610cf6565b9392505050565b7f41756374696f6e20686173206e6f7420656e6465642079657400000000000000600082015250565b6000611116601983610ee3565b9150611121826110e0565b602082019050919050565b6000602082019050818103600083015261114581611109565b905091905056fea2646970667358221220e82ffa59dfd9b6276a05e66eb164d46c8a6dd28eaa5ea1989cc79fc4a879d6d864736f6c634300081c0033",
  "linkReferences": {},
  "deployedLinkReferences": {}
}