{
  "_format": "hh-sol-artifact-1",
  "contractName": "TipJar",
  "sourceName": "contracts/TipJar.sol",
  "abi": [
    {
      "inputs": [],
      "stateMutability": "nonpayable",
      "type": "constructor"
    },
    {
      "inputs": [],
      "name": "ReentrancyGuardReentrantCall",
      "type": "error"
    },
    {
      "anonymous": false,
      "inputs": [
        {
          "indexed": true,
          "internalType": "address",
          "name": "from",
          "type": "address"
        },
        {
          "indexed": false,
          "internalType": "uint256",
          "name": "amount",
          "type": "uint256"
        },
        {
          "indexed": false,
          "internalType": "string",
          "name": "message",
          "type": "string"
        }
      ],
      "name": "NewTip",
      "type": "event"
    },
    {
      "anonymous": false,
      "inputs": [
        {
          "indexed": true,
          "internalType": "address",
          "name": "to",
          "type": "address"
        },
        {
          "indexed": false,
          "internalType": "uint256",
          "name": "amount",
          "type": "uint256"
        }
      ],
      "name": "Withdrawal",
      "type": "event"
    },
    {
      "inputs": [],
      "name": "getAllTips",
      "outputs": [
        {
          "components": [
            {
              "internalType": "address",
              "name": "from",
              "type": "address"
            },
            {
              "internalType": "uint256",
              "name": "amount",
              "type": "uint256"
            },
            {
              "internalType": "string",
              "name": "message",
              "type": "string"
            },
            {
              "internalType": "uint256",
              "name": "timestamp",
              "type": "uint256"
            }
          ],
          "internalType": "struct TipJar.Tipper[]",
          "name": "",
          "type": "tuple[]"
        }
      ],
      "stateMutability": "view",
      "type": "function"
    },
    {
      "inputs": [],
      "name": "getBalance",
      "outputs": [
        {
          "internalType": "uint256",
          "name": "",
          "type": "uint256"
        }
      ],
      "stateMutability": "view",
      "type": "function"
    },
    {
      "inputs": [
        {
          "internalType": "uint256",
          "name": "i",
          "type": "uint256"
        }
      ],
      "name": "getTip",
      "outputs": [
        {
          "internalType": "address",
          "name": "from",
          "type": "address"
        },
        {
          "internalType": "uint256",
          "name": "amount",
          "type": "uint256"
        },
        {
          "internalType": "string",
          "name": "message",
          "type": "string"
        },
        {
          "internalType": "uint256",
          "name": "timestamp",
          "type": "uint256"
        }
      ],
      "stateMutability": "view",
      "type": "function"
    },
    {
      "inputs": [],
      "name": "getTipsCount",
      "outputs": [
        {
          "internalType": "uint256",
          "name": "",
          "type": "uint256"
        }
      ],
      "stateMutability": "view",
      "type": "function"
    },
    {
      "inputs": [],
      "name": "owner",
      "outputs": [
        {
          "internalType": "address",
          "name": "",
          "type": "address"
        }
      ],
      "stateMutability": "view",
      "type": "function"
    },
    {
      "inputs": [
        {
          "internalType": "string",
          "name": "message",
          "type": "string"
        }
      ],
      "name": "tip",
      "outputs": [],
      "stateMutability": "payable",
      "type": "function"
    },
    {
      "inputs": [],
      "name": "withdraw",
      "outputs": [],
      "stateMutability": "nonpayable",
      "type": "function"
    }
  ],
  "bytecode": "0x6080604052348015600f57600080fd5b50600160008190555033600160006101000a81548173ffffffffffffffffffffffffffffffffffffffff021916908373ffffffffffffffffffffffffffffffffffffffff1602179055506112ea806100686000396000f3fe6080604052600436106100705760003560e01c80635b703f5c1161004e5780635b703f5c146100e25780638da5cb5b14610122578063a12247b01461014d578063cb56393c1461017857610070565b806312065fe014610075578063399ddbbd146100a05780633ccfd60b146100cb575b600080fd5b34801561008157600080fd5b5061008a610194565b6040516100979190610900565b60405180910390f35b3480156100ac57600080fd5b506100b561022c565b6040516100c29190610b20565b60405180910390f35b3480156100d757600080fd5b506100e0610417565b005b3480156100ee57600080fd5b5061010960048036038101906101049190610b82565b6105fe565b6040516101199493929190610c08565b60405180910390f35b34801561012e57600080fd5b506101376106f9565b6040516101449190610c54565b60405180910390f35b34801561015957600080fd5b5061016261071f565b60405161016f9190610900565b60405180910390f35b610192600480360381019061018d9190610da4565b61072c565b005b6000600160009054906101000a900473ffffffffffffffffffffffffffffffffffffffff1673ffffffffffffffffffffffffffffffffffffffff163373ffffffffffffffffffffffffffffffffffffffff1614610226576040517f08c379a000000000000000000000000000000000000000000000000000000000815260040161021d90610e39565b60405180910390fd5b47905090565b6060600160009054906101000a900473ffffffffffffffffffffffffffffffffffffffff1673ffffffffffffffffffffffffffffffffffffffff163373ffffffffffffffffffffffffffffffffffffffff16146102be576040517f08c379a00000000000000000000000000000000000000000000000000000000081526004016102b590610e39565b60405180910390fd5b6002805480602002602001604051908101604052809291908181526020016000905b8282101561040e57838290600052602060002090600402016040518060800160405290816000820160009054906101000a900473ffffffffffffffffffffffffffffffffffffffff1673ffffffffffffffffffffffffffffffffffffffff1673ffffffffffffffffffffffffffffffffffffffff1681526020016001820154815260200160028201805461037390610e88565b80601f016020809104026020016040519081016040528092919081815260200182805461039f90610e88565b80156103ec5780601f106103c1576101008083540402835291602001916103ec565b820191906000526020600020905b8154815290600101906020018083116103cf57829003601f168201915b50505050508152602001600382015481525050815260200190600101906102e0565b50505050905090565b61041f610897565b600160009054906101000a900473ffffffffffffffffffffffffffffffffffffffff1673ffffffffffffffffffffffffffffffffffffffff163373ffffffffffffffffffffffffffffffffffffffff16146104af576040517f08c379a00000000000000000000000000000000000000000000000000000000081526004016104a690610e39565b60405180910390fd5b60004790506000600160009054906101000a900473ffffffffffffffffffffffffffffffffffffffff1673ffffffffffffffffffffffffffffffffffffffff16826040516104fc90610eea565b60006040518083038185875af1925050503d8060008114610539576040519150601f19603f3d011682016040523d82523d6000602084013e61053e565b606091505b5050905080610582576040517f08c379a000000000000000000000000000000000000000000000000000000000815260040161057990610f4b565b60405180910390fd5b600160009054906101000a900473ffffffffffffffffffffffffffffffffffffffff1673ffffffffffffffffffffffffffffffffffffffff167f7fcf532c15f0a6db0bd6d0e038bea71d30d808c7d98cb3bf7268a95bf5081b65836040516105ea9190610900565b60405180910390a250506105fc6108dd565b565b60008060606000806002868154811061061a57610619610f6b565b5b906000526020600020906004020190508060000160009054906101000a900473ffffffffffffffffffffffffffffffffffffffff16816001015482600201836003015481805461066990610e88565b80601f016020809104026020016040519081016040528092919081815260200182805461069590610e88565b80156106e25780601f106106b7576101008083540402835291602001916106e2565b820191906000526020600020905b8154815290600101906020018083116106c557829003601f168201915b505050505091509450945094509450509193509193565b600160009054906101000a900473ffffffffffffffffffffffffffffffffffffffff1681565b6000600280549050905090565b6000341161076f576040517f08c379a000000000000000000000000000000000000000000000000000000000815260040161076690610fe6565b60405180910390fd5b600260405180608001604052803373ffffffffffffffffffffffffffffffffffffffff16815260200134815260200183815260200142815250908060018154018082558091505060019003906000526020600020906004020160009091909190915060008201518160000160006101000a81548173ffffffffffffffffffffffffffffffffffffffff021916908373ffffffffffffffffffffffffffffffffffffffff16021790555060208201518160010155604082015181600201908161083791906111b2565b506060820151816003015550503373ffffffffffffffffffffffffffffffffffffffff167f2edbe3c16cfdf7d59d3418a7bebc467863d7aee89bc4da07262936cf15fb4971348360405161088c929190611284565b60405180910390a250565b6002600054036108d3576040517f3ee5aeb500000000000000000000000000000000000000000000000000000000815260040160405180910390fd5b6002600081905550565b6001600081905550565b6000819050919050565b6108fa816108e7565b82525050565b600060208201905061091560008301846108f1565b92915050565b600081519050919050565b600082825260208201905092915050565b6000819050602082019050919050565b600073ffffffffffffffffffffffffffffffffffffffff82169050919050565b600061097282610947565b9050919050565b61098281610967565b82525050565b610991816108e7565b82525050565b600081519050919050565b600082825260208201905092915050565b60005b838110156109d15780820151818401526020810190506109b6565b60008484015250505050565b6000601f19601f8301169050919050565b60006109f982610997565b610a0381856109a2565b9350610a138185602086016109b3565b610a1c816109dd565b840191505092915050565b6000608083016000830151610a3f6000860182610979565b506020830151610a526020860182610988565b5060408301518482036040860152610a6a82826109ee565b9150506060830151610a7f6060860182610988565b508091505092915050565b6000610a968383610a27565b905092915050565b6000602082019050919050565b6000610ab68261091b565b610ac08185610926565b935083602082028501610ad285610937565b8060005b85811015610b0e5784840389528151610aef8582610a8a565b9450610afa83610a9e565b925060208a01995050600181019050610ad6565b50829750879550505050505092915050565b60006020820190508181036000830152610b3a8184610aab565b905092915050565b6000604051905090565b600080fd5b600080fd5b610b5f816108e7565b8114610b6a57600080fd5b50565b600081359050610b7c81610b56565b92915050565b600060208284031215610b9857610b97610b4c565b5b6000610ba684828501610b6d565b91505092915050565b610bb881610967565b82525050565b600082825260208201905092915050565b6000610bda82610997565b610be48185610bbe565b9350610bf48185602086016109b3565b610bfd816109dd565b840191505092915050565b6000608082019050610c1d6000830187610baf565b610c2a60208301866108f1565b8181036040830152610c3c8185610bcf565b9050610c4b60608301846108f1565b95945050505050565b6000602082019050610c696000830184610baf565b92915050565b600080fd5b600080fd5b7f4e487b7100000000000000000000000000000000000000000000000000000000600052604160045260246000fd5b610cb1826109dd565b810181811067ffffffffffffffff82111715610cd057610ccf610c79565b5b80604052505050565b6000610ce3610b42565b9050610cef8282610ca8565b919050565b600067ffffffffffffffff821115610d0f57610d0e610c79565b5b610d18826109dd565b9050602081019050919050565b82818337600083830152505050565b6000610d47610d4284610cf4565b610cd9565b905082815260208101848484011115610d6357610d62610c74565b5b610d6e848285610d25565b509392505050565b600082601f830112610d8b57610d8a610c6f565b5b8135610d9b848260208601610d34565b91505092915050565b600060208284031215610dba57610db9610b4c565b5b600082013567ffffffffffffffff811115610dd857610dd7610b51565b5b610de484828501610d76565b91505092915050565b7f4f6e6c79206f776e657200000000000000000000000000000000000000000000600082015250565b6000610e23600a83610bbe565b9150610e2e82610ded565b602082019050919050565b60006020820190508181036000830152610e5281610e16565b9050919050565b7f4e487b7100000000000000000000000000000000000000000000000000000000600052602260045260246000fd5b60006002820490506001821680610ea057607f821691505b602082108103610eb357610eb2610e59565b5b50919050565b600081905092915050565b50565b6000610ed4600083610eb9565b9150610edf82610ec4565b600082019050919050565b6000610ef582610ec7565b9150819050919050565b7f5769746864726177616c206661696c6564000000000000000000000000000000600082015250565b6000610f35601183610bbe565b9150610f4082610eff565b602082019050919050565b60006020820190508181036000830152610f6481610f28565b9050919050565b7f4e487b7100000000000000000000000000000000000000000000000000000000600052603260045260246000fd5b7f4d7573742073656e642045544820746f20746970000000000000000000000000600082015250565b6000610fd0601483610bbe565b9150610fdb82610f9a565b602082019050919050565b60006020820190508181036000830152610fff81610fc3565b9050919050565b60008190508160005260206000209050919050565b60006020601f8301049050919050565b600082821b905092915050565b6000600883026110687fffffffffffffffffffffffffffffffffffffffffffffffffffffffffffffffff8261102b565b611072868361102b565b95508019841693508086168417925050509392505050565b6000819050919050565b60006110af6110aa6110a5846108e7565b61108a565b6108e7565b9050919050565b6000819050919050565b6110c983611094565b6110dd6110d5826110b6565b848454611038565b825550505050565b600090565b6110f26110e5565b6110fd8184846110c0565b505050565b5b81811015611121576111166000826110ea565b600181019050611103565b5050565b601f8211156111665761113781611006565b6111408461101b565b8101602085101561114f578190505b61116361115b8561101b565b830182611102565b50505b505050565b600082821c905092915050565b60006111896000198460080261116b565b1980831691505092915050565b60006111a28383611178565b9150826002028217905092915050565b6111bb82610997565b67ffffffffffffffff8111156111d4576111d3610c79565b5b6111de8254610e88565b6111e9828285611125565b600060209050601f83116001811461121c576000841561120a578287015190505b6112148582611196565b86555061127c565b601f19841661122a86611006565b60005b828110156112525784890151825560018201915060208501945060208101905061122d565b8683101561126f578489015161126b601f891682611178565b8355505b6001600288020188555050505b505050505050565b600060408201905061129960008301856108f1565b81810360208301526112ab8184610bcf565b9050939250505056fea2646970667358221220aacd51e3b1beb59e4e6227b0f34220d847d23d2131843b3d45ee0f9d281bd58364736f6c634300081c0033",
  "linkReferences": {},
  "deployedLinkReferences": {}
}