{
  "_format": "hh-sol-artifact-1",
  "contractName": "SimpleStorage",
  "sourceName": "contracts/SimpleStorage.sol",
  "abi": [
    {
      "inputs": [],
      "stateMutability": "nonpayable",
      "type": "constructor"
    },
    {
      "inputs": [],
      "name": "deposit",
      "outputs": [],
      "stateMutability": "payable",
      "type": "function"
    },
    {
      "inputs": [],
      "name": "getBalance",
      "outputs": [
        {
          "internalType": "uint256",
          "name": "",
          "type": "uint256"
        }
      ],
      "stateMutability": "view",
      "type": "function"
    },
    {
      "inputs": [],
      "name": "getMessage",
      "outputs": [
        {
          "internalType": "string",
          "name": "",
          "type": "string"
        }
      ],
      "stateMutability": "view",
      "type": "function"
    },
    {
      "inputs": [],
      "name": "owner",
      "outputs": [
        {
          "internalType": "address",
          "name": "",
          "type": "address"
        }
      ],
      "stateMutability": "view",
      "type": "function"
    },
    {
      "inputs": [
        {
          "internalType": "string",
          "name": "_message",
          "type": "string"
        }
      ],
      "name": "storeMessage",
      "outputs": [],
      "stateMutability": "nonpayable",
      "type": "function"
    },
    {
      "inputs": [],
      "name": "withdraw",
      "outputs": [],
      "stateMutability": "nonpayable",
      "type": "function"
    }
  ],
  "bytecode": "0x6080604052348015600f57600080fd5b50336000806101000a81548173ffffffffffffffffffffffffffffffffffffffff021916908373ffffffffffffffffffffffffffffffffffffffff16021790555061095d8061005f6000396000f3fe6080604052600436106100555760003560e01c806312065fe01461005a5780633ccfd60b146100855780638da5cb5b1461009c578063ce6d41de146100c7578063d0e30db0146100f2578063d4e36ba7146100fc575b600080fd5b34801561006657600080fd5b5061006f610125565b60405161007c9190610354565b60405180910390f35b34801561009157600080fd5b5061009a61012d565b005b3480156100a857600080fd5b506100b161026d565b6040516100be91906103b0565b60405180910390f35b3480156100d357600080fd5b506100dc610291565b6040516100e9919061045b565b60405180910390f35b6100fa610323565b005b34801561010857600080fd5b50610123600480360381019061011e91906104ec565b610325565b005b600047905090565b60008054906101000a900473ffffffffffffffffffffffffffffffffffffffff1673ffffffffffffffffffffffffffffffffffffffff163373ffffffffffffffffffffffffffffffffffffffff16146101bb576040517f08c379a00000000000000000000000000000000000000000000000000000000081526004016101b290610585565b60405180910390fd5b600047905060008111610203576040517f08c379a00000000000000000000000000000000000000000000000000000000081526004016101fa906105f1565b60405180910390fd5b60008054906101000a900473ffffffffffffffffffffffffffffffffffffffff1673ffffffffffffffffffffffffffffffffffffffff166108fc829081150290604051600060405180830381858888f19350505050158015610269573d6000803e3d6000fd5b5050565b60008054906101000a900473ffffffffffffffffffffffffffffffffffffffff1681565b6060600180546102a090610640565b80601f01602080910402602001604051908101604052809291908181526020018280546102cc90610640565b80156103195780601f106102ee57610100808354040283529160200191610319565b820191906000526020600020905b8154815290600101906020018083116102fc57829003601f168201915b5050505050905090565b565b818160019182610336929190610857565b505050565b6000819050919050565b61034e8161033b565b82525050565b60006020820190506103696000830184610345565b92915050565b600073ffffffffffffffffffffffffffffffffffffffff82169050919050565b600061039a8261036f565b9050919050565b6103aa8161038f565b82525050565b60006020820190506103c560008301846103a1565b92915050565b600081519050919050565b600082825260208201905092915050565b60005b838110156104055780820151818401526020810190506103ea565b60008484015250505050565b6000601f19601f8301169050919050565b600061042d826103cb565b61043781856103d6565b93506104478185602086016103e7565b61045081610411565b840191505092915050565b600060208201905081810360008301526104758184610422565b905092915050565b600080fd5b600080fd5b600080fd5b600080fd5b600080fd5b60008083601f8401126104ac576104ab610487565b5b8235905067ffffffffffffffff8111156104c9576104c861048c565b5b6020830191508360018202830111156104e5576104e4610491565b5b9250929050565b600080602083850312156105035761050261047d565b5b600083013567ffffffffffffffff81111561052157610520610482565b5b61052d85828601610496565b92509250509250929050565b7f536f6c6f20656c206f776e657220707565646520726574697261720000000000600082015250565b600061056f601b836103d6565b915061057a82610539565b602082019050919050565b6000602082019050818103600083015261059e81610562565b9050919050565b7f53696e20666f6e646f7300000000000000000000000000000000000000000000600082015250565b60006105db600a836103d6565b91506105e6826105a5565b602082019050919050565b6000602082019050818103600083015261060a816105ce565b9050919050565b7f4e487b7100000000000000000000000000000000000000000000000000000000600052602260045260246000fd5b6000600282049050600182168061065857607f821691505b60208210810361066b5761066a610611565b5b50919050565b600082905092915050565b7f4e487b7100000000000000000000000000000000000000000000000000000000600052604160045260246000fd5b60008190508160005260206000209050919050565b60006020601f8301049050919050565b600082821b905092915050565b60006008830261070d7fffffffffffffffffffffffffffffffffffffffffffffffffffffffffffffffff826106d0565b61071786836106d0565b95508019841693508086168417925050509392505050565b6000819050919050565b600061075461074f61074a8461033b565b61072f565b61033b565b9050919050565b6000819050919050565b61076e83610739565b61078261077a8261075b565b8484546106dd565b825550505050565b600090565b61079761078a565b6107a2818484610765565b505050565b5b818110156107c6576107bb60008261078f565b6001810190506107a8565b5050565b601f82111561080b576107dc816106ab565b6107e5846106c0565b810160208510156107f4578190505b610808610800856106c0565b8301826107a7565b50505b505050565b600082821c905092915050565b600061082e60001984600802610810565b1980831691505092915050565b6000610847838361081d565b9150826002028217905092915050565b6108618383610671565b67ffffffffffffffff81111561087a5761087961067c565b5b6108848254610640565b61088f8282856107ca565b6000601f8311600181146108be57600084156108ac578287013590505b6108b6858261083b565b86555061091e565b601f1984166108cc866106ab565b60005b828110156108f4578489013582556001820191506020850194506020810190506108cf565b86831015610911578489013561090d601f89168261081d565b8355505b6001600288020188555050505b5050505050505056fea26469706673582212200a1851550205c9b53f40478519877889fd2745959ed4e330171846ae035943f364736f6c634300081c0033",
  "linkReferences": {},
  "deployedLinkReferences": {}
}