{
  "_format": "hh-sol-artifact-1",
  "contractName": "SimpleBank",
  "sourceName": "contracts/simpleBank.sol",
  "abi": [
    {
      "inputs": [
        {
          "internalType": "uint256",
          "name": "_fee",
          "type": "uint256"
        },
        {
          "internalType": "address",
          "name": "_treasury",
          "type": "address"
        }
      ],
      "stateMutability": "nonpayable",
      "type": "constructor"
    },
    {
      "anonymous": false,
      "inputs": [
        {
          "indexed": true,
          "internalType": "address",
          "name": "user",
          "type": "address"
        },
        {
          "indexed": false,
          "internalType": "uint256",
          "name": "amount",
          "type": "uint256"
        }
      ],
      "name": "Deposit",
      "type": "event"
    },
    {
      "anonymous": false,
      "inputs": [
        {
          "indexed": true,
          "internalType": "address",
          "name": "owner",
          "type": "address"
        },
        {
          "indexed": false,
          "internalType": "uint256",
          "name": "amount",
          "type": "uint256"
        }
      ],
      "name": "TreasuryWithdrawal",
      "type": "event"
    },
    {
      "anonymous": false,
      "inputs": [
        {
          "indexed": true,
          "internalType": "address",
          "name": "user",
          "type": "address"
        },
        {
          "indexed": false,
          "internalType": "string",
          "name": "firstName",
          "type": "string"
        },
        {
          "indexed": false,
          "internalType": "string",
          "name": "lastName",
          "type": "string"
        }
      ],
      "name": "UserRegistered",
      "type": "event"
    },
    {
      "anonymous": false,
      "inputs": [
        {
          "indexed": true,
          "internalType": "address",
          "name": "user",
          "type": "address"
        },
        {
          "indexed": false,
          "internalType": "uint256",
          "name": "amount",
          "type": "uint256"
        },
        {
          "indexed": false,
          "internalType": "uint256",
          "name": "fee",
          "type": "uint256"
        }
      ],
      "name": "Withdrawal",
      "type": "event"
    },
    {
      "inputs": [],
      "name": "deposit",
      "outputs": [],
      "stateMutability": "payable",
      "type": "function"
    },
    {
      "inputs": [],
      "name": "emergencyWithdraw",
      "outputs": [],
      "stateMutability": "nonpayable",
      "type": "function"
    },
    {
      "inputs": [],
      "name": "fee",
      "outputs": [
        {
          "internalType": "uint256",
          "name": "",
          "type": "uint256"
        }
      ],
      "stateMutability": "view",
      "type": "function"
    },
    {
      "inputs": [],
      "name": "getBalance",
      "outputs": [
        {
          "internalType": "uint256",
          "name": "",
          "type": "uint256"
        }
      ],
      "stateMutability": "view",
      "type": "function"
    },
    {
      "inputs": [],
      "name": "owner",
      "outputs": [
        {
          "internalType": "address",
          "name": "",
          "type": "address"
        }
      ],
      "stateMutability": "view",
      "type": "function"
    },
    {
      "inputs": [
        {
          "internalType": "string",
          "name": "_firstName",
          "type": "string"
        },
        {
          "internalType": "string",
          "name": "_lastName",
          "type": "string"
        }
      ],
      "name": "register",
      "outputs": [],
      "stateMutability": "nonpayable",
      "type": "function"
    },
    {
      "inputs": [],
      "name": "treasury",
      "outputs": [
        {
          "internalType": "address",
          "name": "",
          "type": "address"
        }
      ],
      "stateMutability": "view",
      "type": "function"
    },
    {
      "inputs": [],
      "name": "treasuryBalance",
      "outputs": [
        {
          "internalType": "uint256",
          "name": "",
          "type": "uint256"
        }
      ],
      "stateMutability": "view",
      "type": "function"
    },
    {
      "inputs": [
        {
          "internalType": "address",
          "name": "",
          "type": "address"
        }
      ],
      "name": "users",
      "outputs": [
        {
          "internalType": "string",
          "name": "firstName",
          "type": "string"
        },
        {
          "internalType": "string",
          "name": "lastName",
          "type": "string"
        },
        {
          "internalType": "uint256",
          "name": "balance",
          "type": "uint256"
        },
        {
          "internalType": "bool",
          "name": "isRegistered",
          "type": "bool"
        }
      ],
      "stateMutability": "view",
      "type": "function"
    },
    {
      "inputs": [
        {
          "internalType": "uint256",
          "name": "_amount",
          "type": "uint256"
        }
      ],
      "name": "withdraw",
      "outputs": [],
      "stateMutability": "nonpayable",
      "type": "function"
    },
    {
      "inputs": [
        {
          "internalType": "uint256",
          "name": "_amount",
          "type": "uint256"
        }
      ],
      "name": "withdrawTreasury",
      "outputs": [],
      "stateMutability": "nonpayable",
      "type": "function"
    }
  ],
  "bytecode": "0x608060405234801561001057600080fd5b50604051611fff380380611fff83398181016040528101906100329190610217565b600073ffffffffffffffffffffffffffffffffffffffff168173ffffffffffffffffffffffffffffffffffffffff16036100a1576040517f08c379a0000000000000000000000000000000000000000000000000000000008152600401610098906102da565b60405180910390fd5b6127108211156100e6576040517f08c379a00000000000000000000000000000000000000000000000000000000081526004016100dd9061036c565b60405180910390fd5b33600160006101000a81548173ffffffffffffffffffffffffffffffffffffffff021916908373ffffffffffffffffffffffffffffffffffffffff1602179055508160038190555080600260006101000a81548173ffffffffffffffffffffffffffffffffffffffff021916908373ffffffffffffffffffffffffffffffffffffffff1602179055506000600481905550505061038c565b600080fd5b6000819050919050565b61019681610183565b81146101a157600080fd5b50565b6000815190506101b38161018d565b92915050565b600073ffffffffffffffffffffffffffffffffffffffff82169050919050565b60006101e4826101b9565b9050919050565b6101f4816101d9565b81146101ff57600080fd5b50565b600081519050610211816101eb565b92915050565b6000806040838503121561022e5761022d61017e565b5b600061023c858286016101a4565b925050602061024d85828601610202565b9150509250929050565b600082825260208201905092915050565b7f4c6120646972656363696f6e206465206c61207465736f7265726961206e6f2060008201527f707565646520736572206365726f000000000000000000000000000000000000602082015250565b60006102c4602e83610257565b91506102cf82610268565b604082019050919050565b600060208201905081810360008301526102f3816102b7565b9050919050565b7f456c20666565206e6f20707565646520736572206d61796f7220616c2031303060008201527f2500000000000000000000000000000000000000000000000000000000000000602082015250565b6000610356602183610257565b9150610361826102fa565b604082019050919050565b6000602082019050818103600083015261038581610349565b9050919050565b611c648061039b6000396000f3fe60806040526004361061009c5760003560e01c806361d027b31161006457806361d027b3146101725780638da5cb5b1461019d578063a87430ba146101c8578063d0e30db014610208578063db2e21bc14610212578063ddca3f43146102295761009c565b806311f1fc99146100a157806312065fe0146100ca5780632e1a7d4d146100f5578063313dab201461011e5780633ffbd47f14610149575b600080fd5b3480156100ad57600080fd5b506100c860048036038101906100c39190610f42565b610254565b005b3480156100d657600080fd5b506100df610462565b6040516100ec9190610f7e565b60405180910390f35b34801561010157600080fd5b5061011c60048036038101906101179190610f42565b610539565b005b34801561012a57600080fd5b50610133610830565b6040516101409190610f7e565b60405180910390f35b34801561015557600080fd5b50610170600480360381019061016b9190610ffe565b610836565b005b34801561017e57600080fd5b50610187610aef565b60405161019491906110c0565b60405180910390f35b3480156101a957600080fd5b506101b2610b15565b6040516101bf91906110c0565b60405180910390f35b3480156101d457600080fd5b506101ef60048036038101906101ea9190611107565b610b3b565b6040516101ff94939291906111df565b60405180910390f35b610210610c88565b005b34801561021e57600080fd5b50610227610e01565b005b34801561023557600080fd5b5061023e610efc565b60405161024b9190610f7e565b60405180910390f35b600160009054906101000a900473ffffffffffffffffffffffffffffffffffffffff1673ffffffffffffffffffffffffffffffffffffffff163373ffffffffffffffffffffffffffffffffffffffff16146102e4576040517f08c379a00000000000000000000000000000000000000000000000000000000081526004016102db906112a4565b60405180910390fd5b600454811115610329576040517f08c379a000000000000000000000000000000000000000000000000000000000815260040161032090611336565b60405180910390fd5b806004600082825461033b9190611385565b925050819055503373ffffffffffffffffffffffffffffffffffffffff167f233c84dc0c19fbf51f9fa92214ffd8a59f512e0098bff5827455d02e401221c0826040516103889190610f7e565b60405180910390a26000600260009054906101000a900473ffffffffffffffffffffffffffffffffffffffff1673ffffffffffffffffffffffffffffffffffffffff16826040516103d8906113ea565b60006040518083038185875af1925050503d8060008114610415576040519150601f19603f3d011682016040523d82523d6000602084013e61041a565b606091505b505090508061045e576040517f08c379a000000000000000000000000000000000000000000000000000000000815260040161045590611471565b60405180910390fd5b5050565b60008060003373ffffffffffffffffffffffffffffffffffffffff1673ffffffffffffffffffffffffffffffffffffffff16815260200190815260200160002060030160009054906101000a900460ff166104f2576040517f08c379a00000000000000000000000000000000000000000000000000000000081526004016104e9906114dd565b60405180910390fd5b6000803373ffffffffffffffffffffffffffffffffffffffff1673ffffffffffffffffffffffffffffffffffffffff16815260200190815260200160002060020154905090565b6000803373ffffffffffffffffffffffffffffffffffffffff1673ffffffffffffffffffffffffffffffffffffffff16815260200190815260200160002060030160009054906101000a900460ff166105c7576040517f08c379a00000000000000000000000000000000000000000000000000000000081526004016105be906114dd565b60405180910390fd5b6000811161060a576040517f08c379a00000000000000000000000000000000000000000000000000000000081526004016106019061156f565b60405180910390fd5b806000803373ffffffffffffffffffffffffffffffffffffffff1673ffffffffffffffffffffffffffffffffffffffff16815260200190815260200160002060020154101561068e576040517f08c379a0000000000000000000000000000000000000000000000000000000008152600401610685906115db565b60405180910390fd5b6000612710600354836106a191906115fb565b6106ab919061166c565b9050600081836106bb9190611385565b9050826000803373ffffffffffffffffffffffffffffffffffffffff1673ffffffffffffffffffffffffffffffffffffffff168152602001908152602001600020600201600082825461070e9190611385565b925050819055508160046000828254610727919061169d565b925050819055503373ffffffffffffffffffffffffffffffffffffffff167fdf273cb619d95419a9cd0ec88123a0538c85064229baa6363788f743fff90deb82846040516107769291906116d1565b60405180910390a260003373ffffffffffffffffffffffffffffffffffffffff16826040516107a4906113ea565b60006040518083038185875af1925050503d80600081146107e1576040519150601f19603f3d011682016040523d82523d6000602084013e6107e6565b606091505b505090508061082a576040517f08c379a000000000000000000000000000000000000000000000000000000000815260040161082190611746565b60405180910390fd5b50505050565b60045481565b6000848490500361087c576040517f08c379a0000000000000000000000000000000000000000000000000000000008152600401610873906117b2565b60405180910390fd5b600082829050036108c2576040517f08c379a00000000000000000000000000000000000000000000000000000000081526004016108b99061181e565b60405180910390fd5b6000803373ffffffffffffffffffffffffffffffffffffffff1673ffffffffffffffffffffffffffffffffffffffff16815260200190815260200160002060030160009054906101000a900460ff1615610951576040517f08c379a00000000000000000000000000000000000000000000000000000000081526004016109489061188a565b60405180910390fd5b604051806080016040528085858080601f016020809104026020016040519081016040528093929190818152602001838380828437600081840152601f19601f82011690508083019250505050505050815260200183838080601f016020809104026020016040519081016040528093929190818152602001838380828437600081840152601f19601f82011690508083019250505050505050815260200160008152602001600115158152506000803373ffffffffffffffffffffffffffffffffffffffff1673ffffffffffffffffffffffffffffffffffffffff1681526020019081526020016000206000820151816000019081610a519190611ae5565b506020820151816001019081610a679190611ae5565b506040820151816002015560608201518160030160006101000a81548160ff0219169083151502179055509050503373ffffffffffffffffffffffffffffffffffffffff167f92822564bab8864c3a47b34e8d23fbce5c46234eb5da261f94087b995ac0f33b85858585604051610ae19493929190611bf3565b60405180910390a250505050565b600260009054906101000a900473ffffffffffffffffffffffffffffffffffffffff1681565b600160009054906101000a900473ffffffffffffffffffffffffffffffffffffffff1681565b6000602052806000526040600020600091509050806000018054610b5e90611908565b80601f0160208091040260200160405190810160405280929190818152602001828054610b8a90611908565b8015610bd75780601f10610bac57610100808354040283529160200191610bd7565b820191906000526020600020905b815481529060010190602001808311610bba57829003601f168201915b505050505090806001018054610bec90611908565b80601f0160208091040260200160405190810160405280929190818152602001828054610c1890611908565b8015610c655780601f10610c3a57610100808354040283529160200191610c65565b820191906000526020600020905b815481529060010190602001808311610c4857829003601f168201915b5050505050908060020154908060030160009054906101000a900460ff16905084565b6000803373ffffffffffffffffffffffffffffffffffffffff1673ffffffffffffffffffffffffffffffffffffffff16815260200190815260200160002060030160009054906101000a900460ff16610d16576040517f08c379a0000000000000000000000000000000000000000000000000000000008152600401610d0d906114dd565b60405180910390fd5b60003411610d59576040517f08c379a0000000000000000000000000000000000000000000000000000000008152600401610d509061156f565b60405180910390fd5b346000803373ffffffffffffffffffffffffffffffffffffffff1673ffffffffffffffffffffffffffffffffffffffff1681526020019081526020016000206002016000828254610daa919061169d565b925050819055503373ffffffffffffffffffffffffffffffffffffffff167fe1fffcc4923d04b559f4d29a8bfc6cda04eb5b0d3c460751c2402c5c5cc9109c34604051610df79190610f7e565b60405180910390a2565b600160009054906101000a900473ffffffffffffffffffffffffffffffffffffffff1673ffffffffffffffffffffffffffffffffffffffff163373ffffffffffffffffffffffffffffffffffffffff1614610e91576040517f08c379a0000000000000000000000000000000000000000000000000000000008152600401610e88906112a4565b60405180910390fd5b600160009054906101000a900473ffffffffffffffffffffffffffffffffffffffff1673ffffffffffffffffffffffffffffffffffffffff166108fc479081150290604051600060405180830381858888f19350505050158015610ef9573d6000803e3d6000fd5b50565b60035481565b600080fd5b600080fd5b6000819050919050565b610f1f81610f0c565b8114610f2a57600080fd5b50565b600081359050610f3c81610f16565b92915050565b600060208284031215610f5857610f57610f02565b5b6000610f6684828501610f2d565b91505092915050565b610f7881610f0c565b82525050565b6000602082019050610f936000830184610f6f565b92915050565b600080fd5b600080fd5b600080fd5b60008083601f840112610fbe57610fbd610f99565b5b8235905067ffffffffffffffff811115610fdb57610fda610f9e565b5b602083019150836001820283011115610ff757610ff6610fa3565b5b9250929050565b6000806000806040858703121561101857611017610f02565b5b600085013567ffffffffffffffff81111561103657611035610f07565b5b61104287828801610fa8565b9450945050602085013567ffffffffffffffff81111561106557611064610f07565b5b61107187828801610fa8565b925092505092959194509250565b600073ffffffffffffffffffffffffffffffffffffffff82169050919050565b60006110aa8261107f565b9050919050565b6110ba8161109f565b82525050565b60006020820190506110d560008301846110b1565b92915050565b6110e48161109f565b81146110ef57600080fd5b50565b600081359050611101816110db565b92915050565b60006020828403121561111d5761111c610f02565b5b600061112b848285016110f2565b91505092915050565b600081519050919050565b600082825260208201905092915050565b60005b8381101561116e578082015181840152602081019050611153565b60008484015250505050565b6000601f19601f8301169050919050565b600061119682611134565b6111a0818561113f565b93506111b0818560208601611150565b6111b98161117a565b840191505092915050565b60008115159050919050565b6111d9816111c4565b82525050565b600060808201905081810360008301526111f9818761118b565b9050818103602083015261120d818661118b565b905061121c6040830185610f6f565b61122960608301846111d0565b95945050505050565b7f4e6f206175746f72697a61646f3a206e6f20657320656c2070726f706965746160008201527f72696f0000000000000000000000000000000000000000000000000000000000602082015250565b600061128e60238361113f565b915061129982611232565b604082019050919050565b600060208201905081810360008301526112bd81611281565b9050919050565b7f466f6e646f7320696e737566696369656e74657320656e206c61207465736f7260008201527f6572696100000000000000000000000000000000000000000000000000000000602082015250565b600061132060248361113f565b915061132b826112c4565b604082019050919050565b6000602082019050818103600083015261134f81611313565b9050919050565b7f4e487b7100000000000000000000000000000000000000000000000000000000600052601160045260246000fd5b600061139082610f0c565b915061139b83610f0c565b92508282039050818111156113b3576113b2611356565b5b92915050565b600081905092915050565b50565b60006113d46000836113b9565b91506113df826113c4565b600082019050919050565b60006113f5826113c7565b9150819050919050565b7f46616c6c6f20656e206c61207472616e73666572656e6369612064652045544860008201527f206465736465206c61207465736f726572696100000000000000000000000000602082015250565b600061145b60338361113f565b9150611466826113ff565b604082019050919050565b6000602082019050818103600083015261148a8161144e565b9050919050565b7f5573756172696f206e6f207265676973747261646f0000000000000000000000600082015250565b60006114c760158361113f565b91506114d282611491565b602082019050919050565b600060208201905081810360008301526114f6816114ba565b9050919050565b7f4c612063616e7469646164206465626520736572206d61796f7220612063657260008201527f6f00000000000000000000000000000000000000000000000000000000000000602082015250565b600061155960218361113f565b9150611564826114fd565b604082019050919050565b600060208201905081810360008301526115888161154c565b9050919050565b7f53616c646f20696e737566696369656e74650000000000000000000000000000600082015250565b60006115c560128361113f565b91506115d08261158f565b602082019050919050565b600060208201905081810360008301526115f4816115b8565b9050919050565b600061160682610f0c565b915061161183610f0c565b925082820261161f81610f0c565b9150828204841483151761163657611635611356565b5b5092915050565b7f4e487b7100000000000000000000000000000000000000000000000000000000600052601260045260246000fd5b600061167782610f0c565b915061168283610f0c565b9250826116925761169161163d565b5b828204905092915050565b60006116a882610f0c565b91506116b383610f0c565b92508282019050808211156116cb576116ca611356565b5b92915050565b60006040820190506116e66000830185610f6f565b6116f36020830184610f6f565b9392505050565b7f46616c6c6f20656e206c61207472616e73666572656e63696120646520455448600082015250565b600061173060208361113f565b915061173b826116fa565b602082019050919050565b6000602082019050818103600083015261175f81611723565b9050919050565b7f456c206e6f6d627265206e6f20707565646520657374617220766163696f0000600082015250565b600061179c601e8361113f565b91506117a782611766565b602082019050919050565b600060208201905081810360008301526117cb8161178f565b9050919050565b7f456c206170656c6c69646f206e6f20707565646520657374617220766163696f600082015250565b600061180860208361113f565b9150611813826117d2565b602082019050919050565b60006020820190508181036000830152611837816117fb565b9050919050565b7f5573756172696f207961207265676973747261646f0000000000000000000000600082015250565b600061187460158361113f565b915061187f8261183e565b602082019050919050565b600060208201905081810360008301526118a381611867565b9050919050565b7f4e487b7100000000000000000000000000000000000000000000000000000000600052604160045260246000fd5b7f4e487b7100000000000000000000000000000000000000000000000000000000600052602260045260246000fd5b6000600282049050600182168061192057607f821691505b602082108103611933576119326118d9565b5b50919050565b60008190508160005260206000209050919050565b60006020601f8301049050919050565b600082821b905092915050565b60006008830261199b7fffffffffffffffffffffffffffffffffffffffffffffffffffffffffffffffff8261195e565b6119a5868361195e565b95508019841693508086168417925050509392505050565b6000819050919050565b60006119e26119dd6119d884610f0c565b6119bd565b610f0c565b9050919050565b6000819050919050565b6119fc836119c7565b611a10611a08826119e9565b84845461196b565b825550505050565b600090565b611a25611a18565b611a308184846119f3565b505050565b5b81811015611a5457611a49600082611a1d565b600181019050611a36565b5050565b601f821115611a9957611a6a81611939565b611a738461194e565b81016020851015611a82578190505b611a96611a8e8561194e565b830182611a35565b50505b505050565b600082821c905092915050565b6000611abc60001984600802611a9e565b1980831691505092915050565b6000611ad58383611aab565b9150826002028217905092915050565b611aee82611134565b67ffffffffffffffff811115611b0757611b066118aa565b5b611b118254611908565b611b1c828285611a58565b600060209050601f831160018114611b4f5760008415611b3d578287015190505b611b478582611ac9565b865550611baf565b601f198416611b5d86611939565b60005b82811015611b8557848901518255600182019150602085019450602081019050611b60565b86831015611ba25784890151611b9e601f891682611aab565b8355505b6001600288020188555050505b505050505050565b82818337600083830152505050565b6000611bd2838561113f565b9350611bdf838584611bb7565b611be88361117a565b840190509392505050565b60006040820190508181036000830152611c0e818688611bc6565b90508181036020830152611c23818486611bc6565b90509594505050505056fea26469706673582212209b04b5c9e4e6414345c924248d82c356f61e54005add41b10057d43b864612a764736f6c634300081c0033",
  "linkReferences": {},
  "deployedLinkReferences": {}
}